{
  "contractName": "Migrations",
  "abi": [
    {
      "inputs": [],
      "stateMutability": "nonpayable",
      "type": "constructor"
    },
    {
      "inputs": [
        {
          "internalType": "uint256",
          "name": "",
          "type": "uint256"
        }
      ],
      "name": "funders",
      "outputs": [
        {
          "internalType": "address",
          "name": "",
          "type": "address"
        }
      ],
      "stateMutability": "view",
      "type": "function"
    },
    {
      "inputs": [],
      "name": "last_completed_migration",
      "outputs": [
        {
          "internalType": "uint256",
          "name": "",
          "type": "uint256"
        }
      ],
      "stateMutability": "view",
      "type": "function"
    },
    {
      "inputs": [],
      "name": "owner",
      "outputs": [
        {
          "internalType": "address",
          "name": "",
          "type": "address"
        }
      ],
      "stateMutability": "view",
      "type": "function"
    },
    {
      "stateMutability": "payable",
      "type": "receive"
    },
    {
      "inputs": [
        {
          "internalType": "uint256",
          "name": "completed",
          "type": "uint256"
        }
      ],
      "name": "setCompleted",
      "outputs": [],
      "stateMutability": "nonpayable",
      "type": "function"
    },
    {
      "inputs": [],
      "name": "addfunds",
      "outputs": [],
      "stateMutability": "payable",
      "type": "function"
    },
    {
      "inputs": [],
      "name": "getAllfunctions",
      "outputs": [
        {
          "internalType": "address[]",
          "name": "",
          "type": "address[]"
        }
      ],
      "stateMutability": "view",
      "type": "function"
    },
    {
      "inputs": [
        {
          "internalType": "uint256",
          "name": "_amount",
          "type": "uint256"
        }
      ],
      "name": "withdraw",
      "outputs": [],
      "stateMutability": "nonpayable",
      "type": "function"
    },
    {
      "inputs": [
        {
          "internalType": "uint256",
          "name": "_amount",
          "type": "uint256"
        }
      ],
      "name": "withDrawAllMoney",
      "outputs": [],
      "stateMutability": "nonpayable",
      "type": "function"
    }
  ],
  "bytecode": "0x608060405234801561001057600080fd5b50336000806101000a81548173ffffffffffffffffffffffffffffffffffffffff021916908373ffffffffffffffffffffffffffffffffffffffff160217905550610885806100606000396000f3fe60806040526004361061007f5760003560e01c80638da5cb5b1161004e5780638da5cb5b14610133578063dc0d3dff1461015e578063f036e8bd1461019b578063fdacd576146101a557610086565b80630c7a1d931461008b57806329df4a6c146100b45780632e1a7d4d146100df578063445df0ac1461010857610086565b3661008657005b600080fd5b34801561009757600080fd5b506100b260048036038101906100ad9190610587565b6101ce565b005b3480156100c057600080fd5b506100c9610218565b6040516100d691906106a4565b60405180910390f35b3480156100eb57600080fd5b5061010660048036038101906101019190610587565b6102a6565b005b34801561011457600080fd5b5061011d61041f565b60405161012a91906106d5565b60405180910390f35b34801561013f57600080fd5b50610148610425565b60405161015591906106ff565b60405180910390f35b34801561016a57600080fd5b5061018560048036038101906101809190610587565b610449565b60405161019291906106ff565b60405180910390f35b6101a3610488565b005b3480156101b157600080fd5b506101cc60048036038101906101c79190610587565b6104ed565b005b3373ffffffffffffffffffffffffffffffffffffffff166108fc829081150290604051600060405180830381858888f19350505050158015610214573d6000803e3d6000fd5b5050565b6060600280548060200260200160405190810160405280929190818152602001828054801561029c57602002820191906000526020600020905b8160009054906101000a900473ffffffffffffffffffffffffffffffffffffffff1673ffffffffffffffffffffffffffffffffffffffff1681526020019060010190808311610252575b5050505050905090565b60008054906101000a900473ffffffffffffffffffffffffffffffffffffffff1673ffffffffffffffffffffffffffffffffffffffff163373ffffffffffffffffffffffffffffffffffffffff161415610389574781111561033d576040517f08c379a00000000000000000000000000000000000000000000000000000000081526004016103349061079d565b60405180910390fd5b3373ffffffffffffffffffffffffffffffffffffffff166108fc829081150290604051600060405180830381858888f19350505050158015610383573d6000803e3d6000fd5b5061041c565b670de0b6b3a76400008111156103d4576040517f08c379a00000000000000000000000000000000000000000000000000000000081526004016103cb9061082f565b60405180910390fd5b3373ffffffffffffffffffffffffffffffffffffffff166108fc829081150290604051600060405180830381858888f1935050505015801561041a573d6000803e3d6000fd5b505b50565b60015481565b60008054906101000a900473ffffffffffffffffffffffffffffffffffffffff1681565b6002818154811061045957600080fd5b906000526020600020016000915054906101000a900473ffffffffffffffffffffffffffffffffffffffff1681565b6002339080600181540180825580915050600190039060005260206000200160009091909190916101000a81548173ffffffffffffffffffffffffffffffffffffffff021916908373ffffffffffffffffffffffffffffffffffffffff160217905550565b60008054906101000a900473ffffffffffffffffffffffffffffffffffffffff1673ffffffffffffffffffffffffffffffffffffffff163373ffffffffffffffffffffffffffffffffffffffff16141561054957806001819055505b50565b600080fd5b6000819050919050565b61056481610551565b811461056f57600080fd5b50565b6000813590506105818161055b565b92915050565b60006020828403121561059d5761059c61054c565b5b60006105ab84828501610572565b91505092915050565b600081519050919050565b600082825260208201905092915050565b6000819050602082019050919050565b600073ffffffffffffffffffffffffffffffffffffffff82169050919050565b600061060b826105e0565b9050919050565b61061b81610600565b82525050565b600061062d8383610612565b60208301905092915050565b6000602082019050919050565b6000610651826105b4565b61065b81856105bf565b9350610666836105d0565b8060005b8381101561069757815161067e8882610621565b975061068983610639565b92505060018101905061066a565b5085935050505092915050565b600060208201905081810360008301526106be8184610646565b905092915050565b6106cf81610551565b82525050565b60006020820190506106ea60008301846106c6565b92915050565b6106f981610600565b82525050565b600060208201905061071460008301846106f0565b92915050565b600082825260208201905092915050565b7f796f7520617265207769746864726177696e67206d6f7265207468616e20776160008201527f6c6c657427732066756e64000000000000000000000000000000000000000000602082015250565b6000610787602b8361071a565b91506107928261072b565b604082019050919050565b600060208201905081810360008301526107b68161077a565b9050919050565b7f796f752061726520616c6c6f77656420746f207769746864726177206d6f726560008201527f207468616e20316574682e000000000000000000000000000000000000000000602082015250565b6000610819602b8361071a565b9150610824826107bd565b604082019050919050565b600060208201905081810360008301526108488161080c565b905091905056fea26469706673582212201c80a7972566834b5e3d99dc4ac3ef65dc600dd96a3252f7f18fccb304b88bb664736f6c634300080b0033",
  "immutableReferences": {},
  "source": "// SPDX-License-Identifier: MIT\npragma solidity >=0.4.21 <0.9.0;\n\ncontract Migrations {\n  address public owner;\n  uint public last_completed_migration;\n  address[] public funders;\n  modifier restricted() {\n    if (msg.sender == owner) _;\n  }\n\n  constructor(){\n    owner = msg.sender;\n  }\n\n  function setCompleted(uint completed) public restricted {\n    last_completed_migration = completed;\n  }\n\n  receive() external payable{}\n  function addfunds() external payable{\n    funders.push(msg.sender);\n  }\n  \n  function getAllfunctions() external view returns(address[] memory){\n    return funders;\n  }\n  function withdraw(uint _amount) external {\n     if (msg.sender==owner){\n           require(_amount<=address(this).balance,\"you are withdrawing more than wallet's fund\");\n           payable(msg.sender).transfer(_amount);\n     }else{\n     require(_amount<=1000000000000000000,\"you are allowed to withdraw more than 1eth.\");\n\n     payable(msg.sender).transfer(_amount);\n     }\n  } \n\n  function withDrawAllMoney(uint _amount) external {\n    // require(msg.sender==owner,\"you are not a owner\");\n    payable(msg.sender).transfer(_amount);\n  }\n\n}\n",
  "sourcePath": "C:\\Users\\user\\Desktop\\Projects\\newtruffle\\contracts\\Migrations.sol",
  "compiler": {
    "name": "solc",
    "version": "0.8.11+commit.d7f03943.Emscripten.clang"
  },
  "schemaVersion": "3.4.6",
  "updatedAt": "2022-03-20T16:06:06.725Z",
  "devdoc": {
    "kind": "dev",
    "methods": {},
    "version": 1
  },
  "userdoc": {
    "kind": "user",
    "methods": {},
    "version": 1
  }
}